:020000040000FA
:1000000083160030860006308500831200308B0096
:100010000B0835200C2009288518122005191520F9
:100020000C2808001820252008001E202520080084
:100030000B083520860085188B0A08000B08352030
:100040008600252005198B03080007308D002F300E
:100050008E0003308C008D0B2E288E0B30288C0BDD
:100060002B28322833283428080082073F340634EE
:100070005B344F3466346D347D3407347F346F34F1
:02400E00F13F80
:00000001FF
