:020000040000FA
:1000000083160030860006308500831200308B0096
:100010000B0834200C2009288518122805191528EA
:100020000C280800182024200C281E2024200C282E
:100030000B083420860085188B0A08008B030B08F8
:10004000342086002420080007308D002F308E00D9
:1000500003308C008D0B2D288E0B2F288C0B2A281B
:10006000312832283328080082073F3406345B34B5
:0E0070004F3466346D347D3407347F346F3482
:02400E00F13F80
:00000001FF
